{
  "_format": "hh-sol-artifact-1",
  "contractName": "Tracking",
  "sourceName": "contracts/Tracking.sol",
  "abi": [
    {
      "inputs": [
        {
          "internalType": "uint256",
          "name": "_orderId",
          "type": "uint256"
        }
      ],
      "name": "MaterialProduction",
      "outputs": [],
      "stateMutability": "nonpayable",
      "type": "function"
    },
    {
      "inputs": [
        {
          "internalType": "uint256",
          "name": "_orderId",
          "type": "uint256"
        }
      ],
      "name": "acceptMaterial",
      "outputs": [],
      "stateMutability": "nonpayable",
      "type": "function"
    },
    {
      "inputs": [
        {
          "internalType": "uint256",
          "name": "_orderId",
          "type": "uint256"
        }
      ],
      "name": "deliverMaterial",
      "outputs": [],
      "stateMutability": "nonpayable",
      "type": "function"
    },
    {
      "inputs": [
        {
          "internalType": "uint256",
          "name": "_orderId",
          "type": "uint256"
        }
      ],
      "name": "getOrderStatus",
      "outputs": [
        {
          "internalType": "string",
          "name": "status",
          "type": "string"
        },
        {
          "internalType": "uint256",
          "name": "productionDate",
          "type": "uint256"
        },
        {
          "internalType": "uint256",
          "name": "shippingDate",
          "type": "uint256"
        },
        {
          "internalType": "uint256",
          "name": "deliveryDate",
          "type": "uint256"
        },
        {
          "internalType": "uint256",
          "name": "acceptanceDate",
          "type": "uint256"
        }
      ],
      "stateMutability": "view",
      "type": "function"
    },
    {
      "inputs": [
        {
          "internalType": "string",
          "name": "_materialType",
          "type": "string"
        },
        {
          "internalType": "uint256",
          "name": "_quantity",
          "type": "uint256"
        }
      ],
      "name": "issuePurchaseOrder",
      "outputs": [],
      "stateMutability": "nonpayable",
      "type": "function"
    },
    {
      "inputs": [],
      "name": "nextOrderId",
      "outputs": [
        {
          "internalType": "uint256",
          "name": "",
          "type": "uint256"
        }
      ],
      "stateMutability": "view",
      "type": "function"
    },
    {
      "inputs": [
        {
          "internalType": "uint256",
          "name": "",
          "type": "uint256"
        }
      ],
      "name": "orders",
      "outputs": [
        {
          "internalType": "uint256",
          "name": "orderID",
          "type": "uint256"
        },
        {
          "internalType": "string",
          "name": "materialType",
          "type": "string"
        },
        {
          "internalType": "uint256",
          "name": "quantity",
          "type": "uint256"
        },
        {
          "internalType": "string",
          "name": "status",
          "type": "string"
        },
        {
          "internalType": "uint256",
          "name": "productionDate",
          "type": "uint256"
        },
        {
          "internalType": "uint256",
          "name": "shippingDate",
          "type": "uint256"
        },
        {
          "internalType": "uint256",
          "name": "deliveryDate",
          "type": "uint256"
        },
        {
          "internalType": "uint256",
          "name": "acceptanceDate",
          "type": "uint256"
        }
      ],
      "stateMutability": "view",
      "type": "function"
    },
    {
      "inputs": [
        {
          "internalType": "uint256",
          "name": "_orderId",
          "type": "uint256"
        }
      ],
      "name": "transportMaterial",
      "outputs": [],
      "stateMutability": "nonpayable",
      "type": "function"
    }
  ],
  "bytecode": "0x6080604052348015600f57600080fd5b506116648061001f6000396000f3fe608060405234801561001057600080fd5b50600436106100885760003560e01c80639ffafcc91161005b5780639ffafcc914610117578063a85c38ef14610133578063b1dd90251461016a578063fb0c96691461018657610088565b80632a58b3301461008d57806345fa8aae146100ab57806370a6c5bd146100df5780637fe03487146100fb575b600080fd5b6100956101a2565b6040516100a29190610c08565b60405180910390f35b6100c560048036038101906100c09190610c63565b6101a8565b6040516100d6959493929190610d20565b60405180910390f35b6100f960048036038101906100f49190610c63565b6103c3565b005b61011560048036038101906101109190610c63565b610543565b005b610131600480360381019061012c9190610eaf565b6106c3565b005b61014d60048036038101906101489190610c63565b6107d3565b604051610161989796959493929190610f0b565b60405180910390f35b610184600480360381019061017f9190610c63565b61092b565b005b6101a0600480360381019061019b9190610c63565b610aab565b005b60015481565b6060600080600080600080600088815260200190815260200160002060030180546101d290610fc6565b905003610214576040517f08c379a000000000000000000000000000000000000000000000000000000000815260040161020b90611043565b60405180910390fd5b6000806000888152602001908152602001600020604051806101000160405290816000820154815260200160018201805461024e90610fc6565b80601f016020809104026020016040519081016040528092919081815260200182805461027a90610fc6565b80156102c75780601f1061029c576101008083540402835291602001916102c7565b820191906000526020600020905b8154815290600101906020018083116102aa57829003601f168201915b50505050508152602001600282015481526020016003820180546102ea90610fc6565b80601f016020809104026020016040519081016040528092919081815260200182805461031690610fc6565b80156103635780601f1061033857610100808354040283529160200191610363565b820191906000526020600020905b81548152906001019060200180831161034657829003601f168201915b505050505081526020016004820154815260200160058201548152602001600682015481526020016007820154815250509050806060015181608001518260a001518360c001518460e00151955095509550955095505091939590929450565b600080600083815260200190815260200160002060030180546103e590610fc6565b905003610427576040517f08c379a000000000000000000000000000000000000000000000000000000000815260040161041e90611043565b60405180910390fd5b6040518060400160405280600981526020017f44656c6976657265640000000000000000000000000000000000000000000000815250805190602001206000808381526020019081526020016000206003016040516104869190611106565b6040518091039020146104ce576040517f08c379a00000000000000000000000000000000000000000000000000000000081526004016104c590611169565b60405180910390fd5b6040518060400160405280600881526020017f416363657074656400000000000000000000000000000000000000000000000081525060008083815260200190815260200160002060030190816105259190611335565b50426000808381526020019081526020016000206007018190555050565b6000806000838152602001908152602001600020600301805461056590610fc6565b9050036105a7576040517f08c379a000000000000000000000000000000000000000000000000000000000815260040161059e90611043565b60405180910390fd5b6040518060400160405280600781526020017f5368697070656400000000000000000000000000000000000000000000000000815250805190602001206000808381526020019081526020016000206003016040516106069190611106565b60405180910390201461064e576040517f08c379a000000000000000000000000000000000000000000000000000000000815260040161064590611453565b60405180910390fd5b6040518060400160405280600981526020017f44656c697665726564000000000000000000000000000000000000000000000081525060008083815260200190815260200160002060030190816106a59190611335565b50426000808381526020019081526020016000206006018190555050565b6000600160008154809291906106d8906114a2565b9190505590506040518061010001604052808281526020018481526020018381526020016040518060400160405280600781526020017f4f72646572656400000000000000000000000000000000000000000000000000815250815260200160008152602001600081526020016000815260200160008152506000808381526020019081526020016000206000820151816000015560208201518160010190816107829190611335565b506040820151816002015560608201518160030190816107a29190611335565b506080820151816004015560a0820151816005015560c0820151816006015560e08201518160070155905050505050565b60006020528060005260406000206000915090508060000154908060010180546107fc90610fc6565b80601f016020809104026020016040519081016040528092919081815260200182805461082890610fc6565b80156108755780601f1061084a57610100808354040283529160200191610875565b820191906000526020600020905b81548152906001019060200180831161085857829003601f168201915b50505050509080600201549080600301805461089090610fc6565b80601f01602080910402602001604051908101604052809291908181526020018280546108bc90610fc6565b80156109095780601f106108de57610100808354040283529160200191610909565b820191906000526020600020905b8154815290600101906020018083116108ec57829003601f168201915b5050505050908060040154908060050154908060060154908060070154905088565b6000806000838152602001908152602001600020600301805461094d90610fc6565b90500361098f576040517f08c379a000000000000000000000000000000000000000000000000000000000815260040161098690611043565b60405180910390fd5b6040518060400160405280600881526020017f50726f6475636564000000000000000000000000000000000000000000000000815250805190602001206000808381526020019081526020016000206003016040516109ee9190611106565b604051809103902014610a36576040517f08c379a0000000000000000000000000000000000000000000000000000000008152600401610a2d90611536565b60405180910390fd5b6040518060400160405280600781526020017f53686970706564000000000000000000000000000000000000000000000000008152506000808381526020019081526020016000206003019081610a8d9190611335565b50426000808381526020019081526020016000206005018190555050565b6001548110610aef576040517f08c379a0000000000000000000000000000000000000000000000000000000008152600401610ae6906115a2565b60405180910390fd5b600080600083815260200190815260200160002090506040518060400160405280600781526020017f4f726465726564000000000000000000000000000000000000000000000000008152508051906020012081600301604051610b539190611106565b604051809103902014610b9b576040517f08c379a0000000000000000000000000000000000000000000000000000000008152600401610b929061160e565b60405180910390fd5b6040518060400160405280600881526020017f50726f6475636564000000000000000000000000000000000000000000000000815250816003019081610be19190611335565b504281600401819055505050565b6000819050919050565b610c0281610bef565b82525050565b6000602082019050610c1d6000830184610bf9565b92915050565b6000604051905090565b600080fd5b600080fd5b610c4081610bef565b8114610c4b57600080fd5b50565b600081359050610c5d81610c37565b92915050565b600060208284031215610c7957610c78610c2d565b5b6000610c8784828501610c4e565b91505092915050565b600081519050919050565b600082825260208201905092915050565b60005b83811015610cca578082015181840152602081019050610caf565b60008484015250505050565b6000601f19601f8301169050919050565b6000610cf282610c90565b610cfc8185610c9b565b9350610d0c818560208601610cac565b610d1581610cd6565b840191505092915050565b600060a0820190508181036000830152610d3a8188610ce7565b9050610d496020830187610bf9565b610d566040830186610bf9565b610d636060830185610bf9565b610d706080830184610bf9565b9695505050505050565b600080fd5b600080fd5b7f4e487b7100000000000000000000000000000000000000000000000000000000600052604160045260246000fd5b610dbc82610cd6565b810181811067ffffffffffffffff82111715610ddb57610dda610d84565b5b80604052505050565b6000610dee610c23565b9050610dfa8282610db3565b919050565b600067ffffffffffffffff821115610e1a57610e19610d84565b5b610e2382610cd6565b9050602081019050919050565b82818337600083830152505050565b6000610e52610e4d84610dff565b610de4565b905082815260208101848484011115610e6e57610e6d610d7f565b5b610e79848285610e30565b509392505050565b600082601f830112610e9657610e95610d7a565b5b8135610ea6848260208601610e3f565b91505092915050565b60008060408385031215610ec657610ec5610c2d565b5b600083013567ffffffffffffffff811115610ee457610ee3610c32565b5b610ef085828601610e81565b9250506020610f0185828601610c4e565b9150509250929050565b600061010082019050610f21600083018b610bf9565b8181036020830152610f33818a610ce7565b9050610f426040830189610bf9565b8181036060830152610f548188610ce7565b9050610f636080830187610bf9565b610f7060a0830186610bf9565b610f7d60c0830185610bf9565b610f8a60e0830184610bf9565b9998505050505050505050565b7f4e487b7100000000000000000000000000000000000000000000000000000000600052602260045260246000fd5b60006002820490506001821680610fde57607f821691505b602082108103610ff157610ff0610f97565b5b50919050565b7f4f72646572206e6f7420666f756e640000000000000000000000000000000000600082015250565b600061102d600f83610c9b565b915061103882610ff7565b602082019050919050565b6000602082019050818103600083015261105c81611020565b9050919050565b600081905092915050565b60008190508160005260206000209050919050565b6000815461109081610fc6565b61109a8186611063565b945060018216600081146110b557600181146110ca576110fd565b60ff19831686528115158202860193506110fd565b6110d38561106e565b60005b838110156110f5578154818901526001820191506020810190506110d6565b838801955050505b50505092915050565b60006111128284611083565b915081905092915050565b7f4f72646572206e6f742064656c69766572656420796574000000000000000000600082015250565b6000611153601783610c9b565b915061115e8261111d565b602082019050919050565b6000602082019050818103600083015261118281611146565b9050919050565b60008190508160005260206000209050919050565b60006020601f8301049050919050565b600082821b905092915050565b6000600883026111eb7fffffffffffffffffffffffffffffffffffffffffffffffffffffffffffffffff826111ae565b6111f586836111ae565b95508019841693508086168417925050509392505050565b6000819050919050565b600061123261122d61122884610bef565b61120d565b610bef565b9050919050565b6000819050919050565b61124c83611217565b61126061125882611239565b8484546111bb565b825550505050565b600090565b611275611268565b611280818484611243565b505050565b5b818110156112a45761129960008261126d565b600181019050611286565b5050565b601f8211156112e9576112ba81611189565b6112c38461119e565b810160208510156112d2578190505b6112e66112de8561119e565b830182611285565b50505b505050565b600082821c905092915050565b600061130c600019846008026112ee565b1980831691505092915050565b600061132583836112fb565b9150826002028217905092915050565b61133e82610c90565b67ffffffffffffffff81111561135757611356610d84565b5b6113618254610fc6565b61136c8282856112a8565b600060209050601f83116001811461139f576000841561138d578287015190505b6113978582611319565b8655506113ff565b601f1984166113ad86611189565b60005b828110156113d5578489015182556001820191506020850194506020810190506113b0565b868310156113f257848901516113ee601f8916826112fb565b8355505b6001600288020188555050505b505050505050565b7f4f72646572206e6f742073686970706564207965740000000000000000000000600082015250565b600061143d601583610c9b565b915061144882611407565b602082019050919050565b6000602082019050818103600083015261146c81611430565b9050919050565b7f4e487b7100000000000000000000000000000000000000000000000000000000600052601160045260246000fd5b60006114ad82610bef565b91507fffffffffffffffffffffffffffffffffffffffffffffffffffffffffffffffff82036114df576114de611473565b5b600182019050919050565b7f4f72646572206e6f742070726f64756365642079657400000000000000000000600082015250565b6000611520601683610c9b565b915061152b826114ea565b602082019050919050565b6000602082019050818103600083015261154f81611513565b9050919050565b7f496e76616c6964206f7264657220494400000000000000000000000000000000600082015250565b600061158c601083610c9b565b915061159782611556565b602082019050919050565b600060208201905081810360008301526115bb8161157f565b9050919050565b7f4f726465722068617320616c7265616479206265656e2070726f647563656400600082015250565b60006115f8601f83610c9b565b9150611603826115c2565b602082019050919050565b60006020820190508181036000830152611627816115eb565b905091905056fea2646970667358221220987d775f4ba4f01dc0ed2184b3de3b177c3190c5f0d5a898dead6a010bdb442f64736f6c634300081c0033",
  "linkReferences": {},
  "deployedLinkReferences": {}
}